:1000000000800020BD010000350A0000ED0900005D
:10001000ED090000ED090000ED090000ED09000008
:10002000ED090000ED090000ED090000350A0000AF
:10003000350A0000ED090000C91E0000CD1E0000B9
:10004000350A0000350A0000350A0000350A0000B4
:10005000350A0000350A0000350A0000350A0000A4
:10006000350A0000350A0000350A0000350A000094
:10007000350A0000350A0000350A0000350A000084
:10008000350A0000350A0000350A0000350A000074
:10009000350A0000350A0000350A0000350A000064
:1000A000350A0000350A0000350A0000350A000054
:1000B000350A0000350A0000350A0000350A000044
:1000C000350A0000350A0000350A0000350A000034
:1000D000350A0000350A0000350A0000350A000024
:1000E000350A0000350A0000350A0000350A000014
:1000F000350A0000350A0000350A0000350A000004
:10010000350A0000350A0000350A0000350A0000F3
:10011000350A0000350A0000350A0000350A0000E3
:10012000350A0000350A0000350A0000350A0000D3
:10013000350A0000350A0000350A0000350A0000C3
:10014000350A0000350A0000350A0000350A0000B3
:10015000350A0000350A0000350A0000350A0000A3
:10016000350A0000A10F0000350A0000350A000022
:10017000350A0000350A0000350A0000350A000083
:10018000350A0000350A0000350A0000350A000073
:10019000350A0000350A0000350A0000350A000063
:1001A000350A0000350A0000350A0000350A000053
:1001B000350A0000350A0000350A0000564B4CF2A3
:1001C000205210B51A804DF628121A8000BF00BFC9
:1001D00000F034FC514B4FF010621A60504A9A60A4
:1001E000504ADA60504A136813F4807304D14F49BF
:1001F0000B604FF4A85313604D4B1A78110703D5C9
:100200001A7842F008021A704A4B4B492A221A7097
:100210004A4A4B4B8B4204D252F8040F43F8040B6A
:10022000F8E7484B484900228B4202D243F8042B9E
:10023000FAE74649464A002352F8230041F82300D2
:1002400001336F2BF8D1434B434A802103F8011B44
:100250009342FBD1414B3D4A1A60414B8A221A70AE
:10026000A3F5805324225A70A0221A709A7992071B
:10027000FCD59A79D406FCD43A4A937903F00C035E
:10028000082B384BF9D105221A7143225A719A79F9
:100290009006FCD5334A9179324B4906FBD5324A58
:1002A0004FF0817111600521516020221A709A79F6
:1002B00002F00C020C2AFAD12C4B2D4A1A602D4B5D
:1002C0002D4A1A6000225A60072243F8042C2B4A58
:1002D000C3F80C2D62B600F019FD144B1B68DA0749
:1002E00005D5274800F0A4FC264B274A1A60274B67
:1002F0001B785B0609D5234C234B22689A4204D114
:100300001F4800F095FC0023236002F0CFFE00F0B0
:100310009BFB01F0F3FDFEE70E200540308004401A
:10032000823F04000100002B10D0034014D0034092
:1003300002D0074000E007406893FF1F5C77000091
:100340002087FF1F6893FF1F1095FF1F0082FF1F6C
:100350000000000000E400E05FE400E008ED00E0E1
:1003600000500640004006404480044004800440A1
:10037000C010050014E000E03F190100000020203B
:1003800055D64C601CE00340A5C3945A00F00740CA
:10039000FFFFFFFFFFFFFFFFFFFFFFFFFFFFFFFF6D
:1003A000FFFFFFFFFFFFFFFFFFFFFFFFFFFFFFFF5D
:1003B000FFFFFFFFFFFFFFFFFFFFFFFFFFFFFFFF4D
:1003C000FFFFFFFFFFFFFFFFFFFFFFFFFFFFFFFF3D
:1003D000FFFFFFFFFFFFFFFFFFFFFFFFFFFFFFFF2D
:1003E000FFFFFFFFFFFFFFFFFFFFFFFFFFFFFFFF1D
:1003F000FFFFFFFFFFFFFFFFFFFFFFFFFFFFFFFF0D
:10040000FFFFFFFFFFFFFFFFFFFFFFFFDEF9FFFF23
:1004100010B5054C237833B9044B13B10448AFF33E
:1004200000800123237010BD6893FF1F00000000AF
:1004300058770000084B10B51BB108490848AFF3C6
:1004400000800848036803B910BD074B002BFBD0A0
:10045000BDE81040184700BF000000006C93FF1F6C
:10046000587700006893FF1F0000000008B5074B95
:10047000012210201A7000F007FA1121044801F03F
:10048000FDFB0448BDE8084001F028BD0888FF1FB7
:10049000A87200000489FF1F08B5102000F0F4F9CD
:1004A0000221084600F0DCFB05490220032200F08F
:1004B00043FB01210620BDE8084000F0D1BB00BF8E
:1004C0006D0400002DE9F04F85B072B6574B1B78D4
:1004D0009BB962B60021062000F0BCFB41F28830D7
:1004E00000F0C4FB0121062000F0B4FB41F288308B
:1004F00005B0BDE8F04F00F0B9BB26214C484D4D8A
:10050000DFF85891DFF85881DFF838A101F0B6FB29
:10051000494801F0E3FC4FF0000B00270020C5F82C
:1005200000B0CAF800B0BE000024022F4AD019F86B
:10053000060000F0DDF902F099FB404902F0EAFB09
:100540003F4902F09BFC58F8061002F0E3FB2968D3
:1005500002F0D8FA28600220013400F087FB204620
:1005600002F084FBB4F5007FDFD14FF06C512868B6
:1005700002F0D0FB0137032F4AF8040BCED1314BE8
:10058000186801F0B5FF2F4B044698680D4601F03E
:10059000AFFFCDE902012B4B586801F0A9FF2246BD
:1005A0002B46CDE900012849284803F035FB2748B0
:1005B00003F066FB0146254801F060FB1B4A00235F
:1005C000137086E70146286802F058FC204902F0C3
:1005D0003FFDC8B999F8080000F08AF902F046FB1F
:1005E000164902F097FB164902F048FCD8F80810AB
:1005F00002F090FB174902F083FA0E4B196802F0E3
:1006000081FA0C4B1860A6E799F8080000F070F921
:1006100002F02CFB094902F07DFB094902F02EFC97
:10062000D8F8081002F076FB0B49E4E70888FF1FB2
:10063000BC7200008493FF1F0489FF1F33335340B3
:1006400000FF7F478893FF1FE47200009493FF1F11
:1006500000003041CDCC4C3D9A99193E0C88FF1FCB
:10066000FC87FF1F374A384913681B06FCD40B6808
:1006700013F08003F8D172B634490A78002A5FD0AB
:10068000334A3448F0B4344C176806682568D46897
:100690000C303E44143200681268304F35442C440C
:1006A00020440244C2F34E022D4E2E482E4D2F4CB4
:1006B00042F400423A60376806682D682C4A246884
:1006C0000C303E44006812682A4F35442C442044C4
:1006D0000244C2F34E02284E2848294D294C42F4C8
:1006E00000423A60376806682D68274A24680C3053
:1006F0003E4400681268254F35442C44204402448F
:10070000C2F34E02224E2348234D244C42F40042B1
:100710003A60376806682D68214A24680C303E44E8
:100720000068126835442C4420440244C2F34E024F
:100730001C4842F4004202600B7062B6F0BC704785
:1007400062B6704724B0034024B00B409B93FF1F58
:1007500038B003403CB0034040B003402CB00340ED
:1007600058B003405CB0034060B0034064B0034045
:100770006CB0034030B0034038B00B403CB00B408D
:1007800040B00B4044B00B404CB00B402CB00B4081
:1007900058B00B405CB00B4060B00B4064B00B40F5
:1007A0006CB00B4030B00B4030B42948294A2A4B7A
:1007B0002A4D6024E121047011701B78284C082B0D
:1007C00030D00A2B2748284937D00C2B0CBF1522D4
:1007D0003D2212232A60236002600B60234B2449D0
:1007E0001B78244ABBB101230B601360224B2349C1
:1007F0001B78234A012B26D9042B0FD9082B1ED98D
:10080000102B94BF862387230B6013601D4B01229E
:100810001A7030BC70470B601360E7E784230B60ED
:100820001360F3E700F58E200F49083001221323EF
:100830002A60236002600B60D0E71922F7E7852366
:100840000B601360E2E780230B601360DEE700BFFC
:1008500000400740014007401888FF1F08B00340D0
:100860000CB0034008B00B400CB00B409E93FF1F30
:1008700020B0034020B00B401988FF1F24B0034074
:1008800024B00B409B93FF1F0C2830B417D91023C2
:10089000984228BF18461C46104A114D1178181A64
:1008A0008C42287018D00F4913700B7823B10E4971
:1008B0000E4A00230B60136030BCFFF775BF0A2897
:1008C00002D90C231C46E7E7082802D90A231C4654
:1008D000E2E708231C46DFE730BC70471888FF1F9B
:1008E0009A93FF1F9B93FF1F24B0034024B00B403B
:1008F00028282FD8334B2DE9F0411E5CFF2E2BD03A
:10090000314B1B78002B2AD132062CD472B62F4DD6
:100910002F4C2F46012326602B7062B672B62368D7
:100920001B060CD43B781BB9F4E72B78002BF1D0D5
:1009300062B601F0FFFA72B623681806F5D5254BAA
:100940001B6800222A7062B6234A107843FA00F02E
:10095000BDE8F081002070470020BDE8F081FFF77E
:1009600081FE3206D2D572B61C4DDFF87C801C4C5D
:1009700006F04007FFB206F03F06D8F80030DFB1BE
:1009800023F01003C8F8003001232660134A2B70AF
:1009900062B672B6236819060CD413781BB9ECE75B
:1009A0002B78002BE9D062B601F0C4FA72B6236846
:1009B0001B06F5D50B4BC3E743F01003C8F8003016
:1009C000E2E700BFF47200009B93FF1F9D93FF1F9F
:1009D00000B0034010B003409A93FF1F9C93FF1F89
:1009E00000B00B4010B00B400CB00B4008B5104CE1
:1009F00008E0236859050DD423681A050FD423682D
:100A0000DB0411D423685803F3D500F0C9FA236836
:100A10005905F1D500F00EF823681A05EFD500F05E
:100A200009F82368DB04EDD500F004F8EAE700BF1D
:100A30003480044008B5FFF7D9FF00BF014B1022F6
:100A40001A80704700200540704700BF094908B56B
:100A50000B6830B16A461844A2F58052904202D227
:100A60000860184608BD02F01BFB0C2303604FF022
:100A7000FF3008BD1C88FF1F704700BF10B40F4B2C
:100A800053F8302092F880422CB1012369B182F8EA
:100A9000803010BC704703EBC0035B681A6841B933
:100AA00022F002021A6010BC704782F8003110BCBC
:100AB000704742F003021A6010BC704720730000B8
:100AC0001C4A02EBC00301295B6811D004291BD02A
:100AD00052F83000002280F8802229B1022920D06B
:100AE000032922D01A6070474FF480721A60704751
:100AF00052F830004FF4A27280F880121A601A681F
:100B000022F020021A60704752F830104FF4A2729F
:100B1000012081F880021A601A6842F020021A60EF
:100B2000704740F203121A6070474FF481721A60E6
:100B3000704700BF20730000212848D8F8B5042A68
:100B400044D8DFE802F0484B4E0345004FF410262E
:100B50002B4B03EBC0030D465C68216811F4E06188
:100B600048D0284B284A2949C3F89C2104F1404227
:100B70002748C3F8A411A2F59221264FC3F8A0017B
:100B80007C292548C3F8A871C3F8AC012CD9A2F57B
:100B900094237C2B2AD9A2F596237C2B28D9A2F565
:100BA00098237C2B29D9A2F59A227C2A27D81B4886
:100BB00072B6236823F4702343F08072C4F3840177
:100BC0001643236040F82150266062B6F8BD704796
:100BD0004FF43026BCE74FF40026B9E74FF4402627
:100BE000B6E74FF42026B3E70D48E1E70D48DFE70D
:100BF0000D48DDE7FFF764FFB3E70C48D8E7F8BD21
:100C0000207300000082FF1FD187FF1F7987FF1F1D
:100C1000A587FF1F4D87FF1F2187FF1FF888FF1F34
:100C20002088FF1F5888FF1FA888FF1FD888FF1F34
:100C300030B4054B054D064C002210211A602A6085
:100C40002060196030BC704714D0034004D00340CA
:100C500000D00340212801D8FFF710BF704700BF24
:100C6000212801D8FFF72CBF704700BF2DE9F843BA
:100C7000054672B6214F224B224A1B683C68126817
:100C800062B6520102D5322B88BF0134A5B3C3F539
:100C90008C331D4EDFF86890DFF8688003F23F1355
:100CA0004FF47A72A6FB031302FB04F404EB131453
:100CB00072B6D9F800103A68D8F800E062B6C1F50B
:100CC0008C3303F23F13A6FB03031EF0806FC4EBCB
:100CD00013134FF47A7002D0322988BF013200FB1F
:100CE0000233B3F57A7F04D3013D05D004F57A745D
:100CF000DEE701F01FF9DBE7BDE8F883A093FF1FF3
:100D000018E000E004ED00E0398EE338F8B52D4B33
:100D10002D49DFF8D0E0DFF8D0C02C4E2C4D2D4C03
:100D20002D4A2E4F4FF4000018604FF0807018606D
:100D30004FF0007018604FF0806018604FF0006056
:100D4000186000200860282348F6FF71CCF80010D6
:100D5000CEF80030336013602B6023603B60B362D9
:100D60009362092245F8242CC4F8D80F05F57F6555
:100D7000C7F8D41F07F5FF2707F5FA67C6F8F83F4D
:100D80002B6006F5FF26C4F8D42F05F5FD2504F5E4
:100D9000FF24386006F2F4761148316005F5FF65EE
:100DA00004F5FD642B6023600260FFF7FDFC192051
:100DB000FFF75CFF00F05AFE40F21310BDE8F84068
:100DC000FFF754BF08E100E00480034014800340B3
:100DD000248003402C8003401C8003403480034067
:100DE00000800B400C80034008800340431E032B0F
:100DF00014D872B60A4951F8230068B170B4094C8E
:100E0000058834F81320466841F82360521B24F803
:100E1000132062B670BC704762B6704700207047FE
:100E2000FC93FF1FF894FF1F013803280BD872B6FC
:100E3000074B53F8203043B100205B680130002B92
:100E4000FBD162B67047002070471846F9E700BF33
:100E50005094FF1F30B472B62B4A13781D0706D585
:100E60002A4B196A002936D0996A002941D0537853
:100E70001C0706D5254B196C00293ED0996C00291A
:100E800039D09378190705D5204B196E002936D033
:100E9000996E89B1D3781B0707D51C4BD3F88020F6
:100EA0007AB3D3F8882011213AB162B6184B0022E8
:100EB0001A7030BC00F056BE0D21154C154D22782D
:100EC00043F8315003EBC1030830013A58602270F7
:100ED00062B630BC704704220D4C0F4D217843F8A8
:100EE000325003EBC20308304A1E5860227062B6CB
:100EF000EFE70521E1E70921DFE70822ECE70C2213
:100F0000EAE71022E8E700BF5C7400000080FF1FE2
:100F10007994FF1FC800400088004000431E032B47
:100F20001DD81B4A400140F0100030B4104472B686
:100F3000184CE25C032A1BD8DFE802F002121517F6
:100F400003220D88E25410F0080F14BFC823882331
:100F500043EA054308310360416062B630BC704724
:100F600008300222EDE70522EBE708300422E8E72B
:100F7000094A52F8230038B1084A52F82300416068
:100F800042F8231062B6E9E742F82310034AF7E774
:100F90000080FF1F8894FF1F5094FF1F6094FF1F65
:100FA0002DE9F04FDFF818B3DFF818A387B044E05D
:100FB000AE4F4FEA930807EBC809013ED9F8042069
:100FC00003F00803F6B2A2F1080003F0FF04002BBF
:100FD00040F0048157F838301B0C99B222F8081CF5
:100FE000002B00F0F280A24B22F8064C42F8044C91
:100FF00053F82620002A00F06E819E4D55F82630C9
:1010000058609D4C45F8260034F81630194424F8F1
:10101000161000F087FD002800F05681974A984B83
:1010200019F0080F00F1080018BF1346C9F80400B2
:1010300047F8383008238BF800309BF80040E4B2C2
:1010400061071BD58F4B1B78ABB18F490A7802F033
:10105000FF032AB1013BDBB20B70002B00F0EF84E1
:101060008A490A7802F0FF032AB1013BDBB20B7018
:10107000002B00F0F78004238BF8003004F0080305
:1010800003F0FF02002B00F0D6809AF80030DBB2AC
:101090001E098DD19C08DFF8D49159F8342009EB52
:1010A000C401C2F38302013A49680C2A7ED8DFE802
:1010B00002F081817D7D7D7D7D7D477D7D7D070089
:1010C0000868734D4A68734F734E286081B240F2CE
:1010D00081606A4B6A604FF0010E0022814249F83C
:1010E00034303A60C9F81020C9F8182086F800E0BA
:1010F0005E4C00F2F480B1F5D06F80F07883B1F5EA
:10110000817F00F0628300F28782802900F0EC8208
:10111000822940F01E83A98801F07F01042900F292
:1011200018835E485E4C8900084422706270027821
:10113000930740F1798384F800E04FF0020ED8E283
:10114000544F3A6842B3574B534E57491888347836
:101150000D784028864645F0020828BF4FF0400E23
:10116000002C84F001043470CEEB00000CBF882406
:10117000C82409EBC80680B285F0010544EA0E4494
:101180007260188049F8384072440D7018B9BEF189
:10119000400F18BF00223A603D4B1A88B2F5A06F8D
:1011A00004D100219A785970404B1A70404A0123AB
:1011B00013703FE7364A158842F22100854200F05D
:1011C000FF812E4A49F83420F0E72C4A2C4B19F0C5
:1011D000080F18BF134647F838302BE700F0C2FC61
:1011E000344A354952F82630002B00F0B681586851
:1011F0008C5D42F8260003F10802C9F80420032C94
:1012000005D8DFE804F0120F150204228A551A8867
:1012100019F0080F0CBF8823C82343EA024347F89C
:10122000383007E702228A55F1E703228A55EEE7B4
:1012300005228A55EBE7E00700F11A82210600F14A
:101240004982A20706D51D4A1D4913780220DBB248
:1012500013700870E30602D5194B10221A7007B0FC
:10126000BDE8F08F00F0EAFD05E700BF0080FF1F3A
:10127000FC93FF1FA893FF1FF894FF1FC8004000B6
:10128000880040008494FF1F0D94FF1F8C94FF1F63
:101290007094FF1FA493FF1F0C94FF1FC0200740F2
:1012A0007C94FF1FB893FF1F7894FF1F982007407E
:1012B000942007405094FF1F8894FF1F8820074008
:1012C0008020074090200740AB4A47F83800137849
:1012D00001331370AEE643F82600A84D91E642F2C2
:1012E0002100814200F0358100F2AF81B1F5086F35
:1012F00000F01B82B1F5106F40F02B82226AA049EA
:10130000A8780870120600F14583D9F828209D4975
:10131000130600F13A83D9F830209A49150600F1F6
:101320002F83D9F838209749140600F12483D9F87F
:1013300040209449100600F11983D9F848209149BA
:10134000120600F10E83D9F850208E49130600F1E1
:101350000383D9F858208B49150600F1F882D9F893
:1013600060208849140600F12983D9F8682085494E
:10137000100600F11E83D9F870208249120600F190
:101380001383D9F878207F49130600F10883D9F830
:1013900080207C49150600F11C83D9F88820794902
:1013A000140600F11083D9F890207649100600F158
:1013B000C882D9F898207349120600F1BC8272489D
:1013C000724A7349019073486C4D734C0497002323
:1013D00005960295804617460E461D4603943868CA
:1013E00028B1446800F0BEFB2046002CF9D1002350
:1013F0003B60029B30681A46002342F8253028B132
:10140000446800F0AFFB2046002CF9D10022326086
:10141000019A98F800301146002241F8042B039AF3
:101420000191023B4FF0000122F81510032B09D85F
:10143000DFE813F04B0104004B0104004FF00103FF
:1014400088F800300135042D07F1040706F1040681
:1014500008F10108C3D1514C514B2278464D049FED
:10146000059E002129701A70130700F14F826278DF
:101470004C49DFF810810A7010074FF00001C9F8DD
:101480003010C9F8381000F12B824749A2780A7051
:101490000021C9F85010C9F858101107DFF8E4808E
:1014A00000F1DC81E2784149364C0A7000211207D4
:1014B000C9F87010C9F8781000F1B9813378019338
:1014C000002183F00102C9F89010C9F8981000209B
:1014D000029080468446044635490D7845F0020E58
:1014E00009EBCE030393019B002B039B5C600CBFB5
:1014F0008824C82444EA080385F0010449F83E30F2
:1015000032700C70DFF87CE02A4BDFF8A4800028F2
:1015100040F02681BCF1400F1BD144F0020C09EBD6
:10152000CC03029CDFF85CE05C60002A40F02E8176
:10153000020442F088029DF804304EF83C20044436
:1015400033700D702346402803D100201A4A3B60B7
:1015500010801A4A0123137028E68B5D032B00F2DA
:101560002D8101A252F823F0351000003510000043
:10157000BF160000C51600007994FF1FA893FF1F37
:101580008494FF1F0080FF1F6094FF1FFC93FF1FC8
:101590005094FF1F8894FF1FF894FF1F5C74000095
:1015A000C4200740C8200740CC200740D020074077
:1015B0007894FF1F0C94FF1FB893FF1F94200740DF
:1015C000928892B9B14A0D784878157050708D782C
:1015D000C8789570D07010680D79157186284D798E
:1015E00089795571917100F0A580A949A94E0A78B1
:1015F000307882F00105002842F002020D700CBF25
:101600008821C82149F8321009EBC20280F001009C
:10161000002130705160D4E540F20232914240F036
:101620008D80A98801F07F01042900F292806A88E8
:10163000002A40F08E809848CDF804E089000844E4
:10164000017841F00201017041E742F2212081421C
:101650007BD1A988002940F0E480904B904A9148C2
:10166000AC781D681560CDF804E00A4604702EE7DA
:101670008D4B8E4886491A614FF0020E80F800E0CB
:10168000854F0A708A49196099608A4E8A4D8B4C41
:101690009A610D213970FF213170DFF840E2297025
:1016A0002270874D874A8EF800109F27012406F884
:1016B000047C5D600470DA6007B0BDE8F08F002341
:1016C0008B55B7E401238B55B4E44FF0000388F841
:1016D0000030B7E67049784B80220D2008701A70F0
:1016E000A2077FF5B7ADAEE5774C4FF0020E227042
:1016F0006270EA88724580F0A38165490D78402ABE
:10170000944645F0020E28BF4FF0400C04EB0C034A
:1017100009EBCE000293012344604FEA0C48CCEB66
:10172000020001930022C824E4E6684A664C12785D
:101730002270DEE7664A0F21117056E7B1F5A06FFF
:1017400007D1012300220193C1E642F221329142E6
:10175000F7D0514A0F231370544A0123137025E523
:1017600040287FF6DAAE44F002040EEBC401029E7C
:101770004E60BAB19DF80410564A1970334640388D
:1017800088F8005040334EF83420DFE69DF80430EE
:1017900033700204029B0D7042F0C80203444EF8FD
:1017A0003C20D0E69DF804101970029B404A88F84E
:1017B0000050403840334EF83420C7E619F0080F87
:1017C0000CBF022303238B5534E4A98801F07F0169
:1017D0000429BED86A88002ABBD12F48CDF804E07E
:1017E00089000844017821F0020101706FE63A4A4D
:1017F0005468002CADD06888B5F804E003E00C32E2
:101800005468002CA5D013888342F8D153887345BF
:10181000F5D1000A03280CBF94F800E0B2F808E004
:1018200067E7CDF804E052E64FF0020E61E700F002
:1018300079F9002800F0F18008301D4AC4F88400CE
:10184000C4F8802000F06EF9002800F0E080083035
:10185000204AC9F88C00C9F888202FE600F062F908
:10186000002800F0E6800830114AC8F86400C8F883
:10187000602000F057F9002800F0D5800830154AA4
:10188000C9F86C00C9F868200CE600BF0095FF1F7E
:101890007894FF1F0C94FF1FC0200740A093FF1FE8
:1018A0000895FF1F9C94FF1F0080FF1F9420074096
:1018B000880040008820074080200740982007408B
:1018C000BC93FF1F1094FF1F7C94FF1F8494FF1F85
:1018D0000D94FF1FC8004000607400008C2007407A
:1018E00000F020F9002800F08C8008305D4AC8F82C
:1018F0004400C8F8402000F015F900287BD00830DB
:10190000594AC9F84C00C9F84820BEE500F00AF968
:1019100000286AD00830534AC9F82400C9F82020AA
:1019200000F000F900285AD008304F4AC9F82C00BE
:10193000C9F828209BE5D1F89C00083800F012F97E
:101940003DE5D1F89400083800F00CF931E5C86D98
:10195000083800F007F902E5486D083800F002F990
:10196000F7E4C86C083800F0FDF8ECE4486C08387F
:1019700000F0F8F8E1E4C86B083800F0F3F8D6E4BA
:10198000486B083800F0EEF8CBE4C86A083800F07D
:10199000E9F8C0E4606A083800F0E4F8B5E4C86F1C
:1019A000083800F0DFF8F2E4486F083800F0DAF8A1
:1019B000E7E4C86E083800F0D5F8DCE4486E083873
:1019C00000F0D0F8D1E4D1F88C00083800F0CAF863
:1019D000E9E4D1F88400083800F0C4F8DDE42A789E
:1019E000C9F8280001322A7041E52A78C9F8200098
:1019F00001322A7094E72A78C9F8480001322A7027
:101A000043E52A78C8F8400001322A7073E72A7843
:101A1000C9F8880001322A7050E52A78C4F880009D
:101A200001322A700EE72A78C9F8680001322A705C
:101A300038E52A78C8F8600001322A7019E700BE3C
:101A4000BEF1400FF44628BF4FF0400C04EB0C03EE
:101A500002930123CCEB0E004FEA0C4800220193C5
:101A60003AE500BF88004000C80040002DE9F84377
:101A7000204C00F095FB002204F1A00023461A60E0
:101A80005A60083383424FF00001F8D11A4A1B4FC5
:101A900013681B4D1B481C4EDFF87880DFF878C0B8
:101AA000DFF87890DFF878E043F480231360C4F324
:101AB00007233B70C4F307432B70240EFF2302F56A
:101AC00028320470114D88F8003011488CF800302D
:101AD000D4323370012389F8003070268EF800105C
:101AE0004FF40074102107F8183C2E700460117038
:101AF000BDE8F8830080FF1F348004409C2007402D
:101B0000B0200740B42007401020074049E400E01F
:101B100008E100E08020074088200740942007402B
:101B20000021074072B60D480268B2FA82F30B2B0F
:101B300010DC4FF00041D94022EA0102026062B697
:101B4000074803EBC303DB00C2180021C150104655
:101B50005160704762B60020704700BF0089FF1FC8
:101B6000BC83FF1F0D4B0E4AC31AA2FB03231B09A4
:101B70000B2B0CD80B4A127852B972B60A484FF0A8
:101B80000041026821FA03F31A43026062B670470B
:101B9000064A1278002AF0D0FFF75CB9BC83FF1F19
:101BA000398EE3387994FF1F0089FF1F8494FF1F4B
:101BB00038B50F4D286878B143880288C1180133C1
:101BC00093420C7A02D24380204638BDFFF7CAFF09
:101BD000002320462B6038BD064B1B782BB1032019
:101BE000FFF704F928600028E6D14FF0FF3038BD38
:101BF0009894FF1F8494FF1F10B5094C206818B1FA
:101C000043881844007A10BD064B1B782BB1032083
:101C1000FFF7ECF820600028F2D14FF0FF3010BD44
:101C20009894FF1F8494FF1F044B054A1B689088FB
:101C30001BB11A885B88D31A184470479894FF1F09
:101C4000F894FF1F0B4B1B789BB110B50A4C206812
:101C500048B1FFF787FF002303202360FFF7C6F892
:101C600030B1FFF77FFF0320FFF7C0F80028F8D15D
:101C700010BD70478494FF1F9894FF1F2DE9F04F0B
:101C8000DFF8F89083B0012289F80020019169B350
:101C9000DFF8EC80364F019E8346D8F80000B0B3E1
:101CA000344D4488C4F14001B14228BF314604EBB1
:101CB000010E00221FFA8EFE2A70761AA0F802E0AA
:101CC00000F1080251B1013C224459441BF8014B78
:101CD00002F8014F8B45F9D1B0F802E0BEF13F0F99
:101CE0000BD8254A05211170002ED6D1019800236A
:101CF00089F8003003B0BDE8F08F40220280014631
:101D00000420FFF70BF90022C8F80020E9E73A7831
:101D10002AB3184D48F601444FF0010A07E0013C90
:101D200016D02A78A2B900F005F93A78BAB10420A1
:101D3000FFF77AF80728F2D889F800A0FFF7F2FE3B
:101D4000C8F800000028ACD10C4B013C1870E8D159
:101D500001234FF0FF302B7003B0BDE8F08F00235C
:101D60004FF0FF3089F8003003B0BDE8F08F00BFBE
:101D70008494FF1F9494FF1F8C94FF1F8D94FF1F6A
:101D80009094FF1F00B583B002AB012103F8010D51
:101D90001846FFF773FF03B05DF804FB38B50E4D2E
:101DA0000E4C28680123237028B14088002323703B
:101DB000C0F1400038BD0A4B1B7813B900202070D9
:101DC00038BD0420FFF730F80728F7D8FFF7AAFE40
:101DD00028600028E9D1F1E79094FF1F8D94FF1F40
:101DE0008494FF1FF8B5114B1B788BB1104E114D29
:101DF000346801272F7064B10F4A63880027177079
:101E0000214623800420FFF789F8376000232B70D8
:101E1000F8BDFFF787FE084B28B1014604201C706F
:101E2000FFF77CF8F2E71F70F0E700BF8494FF1F14
:101E30009094FF1F8D94FF1F8C94FF1F38B50E4B9D
:101E40001B7873B90D4C216861B103F0FF054B8815
:101E50000B800420FFF762F8256038BD084B012293
:101E60001A7038BDFFF75EFE0028F7D00146BDE8C6
:101E700038400420FFF752B88D94FF1F9094FF1F45
:101E80008C94FF1F70B5EFF3108272B60C4C206873
:101E900080B10C4E00254369236073B19D6102B986
:101EA00062B6457783689847EFF3108272B6206870
:101EB0000028F0D102B962B670BD3360EFE700BF11
:101EC000A094FF1FA494FF1FFFF7DCBF024A136812
:101ED00001331360704700BFA093FF1F00B5064A8F
:101EE000036812885B6883B001A9ADF80420022260
:101EF000984703B05DF804FB3074000008B5FEF7A6
:101F0000CBFAFEF7DFFA00F015F8FAE7FFF79ABE12
:101F1000FFF772BEFFF74CBEFFF786BEFFF762BF4A
:101F2000FFF73CBF08461146FFF7A8BE0846FFF77B
:101F300029BF00BF2DE9F843314E337893B1314FBB
:101F40003A787AB90122D9073A7036D49A0719D467
:101F500000225B073A7005D52B4B1A6812B1EFF3DC
:101F600005820AB1BDE8F883EFF3108172B61868F4
:101F700018B1264C2278002A2ED00029F2D162B660
:101F8000BDE8F883DFF8908098F80020002ADFD0C1
:101F9000DFF88890002405E0013498F80030E4B2BE
:101FA000A34212D959F824502B6828461B69984738
:101FB0000028F1D02B699847EEE7FFF735FEC8B946
:101FC000134B1B781BB93378C0E73378C0E73378FD
:101FD00003F0FE033370B9E745691D6001232370E8
:101FE0005DB1AA6101B962B600254577836898475B
:101FF0002570B7E700F016F9E2E7064B1D60F1E740
:102000001489FF1FB194FF1FAC94FF1FB094FF1FF2
:10201000BA89FF1FA894FF1FC094FF1FB494FF1F2D
:10202000844641EA000313F003036DD1403A41D3E3
:1020300051F8043B40F8043B51F8043B40F8043BA2
:1020400051F8043B40F8043B51F8043B40F8043B92
:1020500051F8043B40F8043B51F8043B40F8043B82
:1020600051F8043B40F8043B51F8043B40F8043B72
:1020700051F8043B40F8043B51F8043B40F8043B62
:1020800051F8043B40F8043B51F8043B40F8043B52
:1020900051F8043B40F8043B51F8043B40F8043B42
:1020A00051F8043B40F8043B51F8043B40F8043B32
:1020B000403ABDD2303211D351F8043B40F8043BD2
:1020C00051F8043B40F8043B51F8043B40F8043B12
:1020D00051F8043B40F8043B103AEDD20C3205D3E2
:1020E00051F8043B40F8043B043AF9D2043208D0DA
:1020F000D2071CBF11F8013B00F8013B01D30B884C
:1021000003806046704700BF082A13D38B078DD029
:1021100010F003038AD0C3F10403D21ADB071CBFFB
:1021200011F8013B00F8013B80D331F8023B20F865
:10213000023B7BE7043AD9D3013A11F8013B00F89E
:10214000013BF9D20B7803704B7843708B78837026
:1021500060467047F0B44D1E2E46002400E0013466
:10216000B0FBF2F302FB1300092800F130078ABF2D
:102170003730F8B2C0B206F8010F1846002BEED186
:102180000A1953704CB1107815F8016F287001339B
:10219000E01A834202F80169F5DB0846F0BC70479B
:1021A00070B584B072B6194B194D1A487022412689
:1021B0000F2480211A702E701A460470197013783B
:1021C0001B06FCD5144B186862B6144B144C98428D
:1021D00098BF00EB800001A998BF40000A22FFF7DA
:1021E000B9FF01A92046002311F8012B01333AB1B0
:1021F0000A2B20F8022FF7D11623237004B070BDEC
:102200005B00DBB2237004B070BD00BF0000024071
:102210000700024006000240080002407F96980036
:10222000A489FF1F704700BF81F0004102E000BF9A
:1022300083F0004330B54FEA41044FEA430594EA86
:10224000050F08BF90EA020F1FBF54EA000C55EAC1
:10225000020C7FEA645C7FEA655C00F0E2804FEA92
:102260005454D4EB5555B8BF6D420CDD2C4480EA74
:10227000020281EA030382EA000083EA010180EAA4
:10228000020281EA0303362D88BF30BD11F0004FF2
:102290004FEA01314FF4801C4CEA113102D0404228
:1022A00061EB410113F0004F4FEA03334CEA133363
:1022B00002D0524263EB430394EA050F00F0A7807B
:1022C000A4F10104D5F1200E0DDB02FA0EFC22FA76
:1022D00005F2801841F1000103FA0EF2801843FA6A
:1022E00005F359410EE0A5F120050EF1200E012A5B
:1022F00003FA0EFC28BF4CF0020C43FA05F3C01899
:1023000051EBE37101F0004507D54FF0000EDCF111
:10231000000C7EEB00006EEB0101B1F5801F1BD3BA
:10232000B1F5001F0CD349085FEA30004FEA3C0CBE
:1023300004F101044FEA445212F5800F80F09A80B4
:10234000BCF1004F08BF5FEA500C50F1000041EBB8
:10235000045141EA050130BD5FEA4C0C404141EBBC
:10236000010111F4801FA4F10104E9D191F0000FE3
:1023700004BF01460020B1FA81F308BF2033A3F166
:102380000B03B3F120020CDA0C3208DD02F1140C5D
:10239000C2F10C0201FA0CF021FA02F10CE002F198
:1023A0001402D8BFC2F1200C01FA02F120FA0CFC91
:1023B000DCBF41EA0C019040E41AA2BF01EB0451DA
:1023C000294330BD6FEA04041F3C1CDA0C340EDCD8
:1023D00004F11404C4F1200220FA04F001FA02F31B
:1023E00040EA030021FA04F345EA030130BDC4F1D9
:1023F0000C04C4F1200220FA02F001FA04F340EACE
:102400000300294630BD21FA04F0294630BD94F07E
:10241000000F83F4801306BF81F480110134013D65
:102420004EE77FEA645C18BF7FEA655C29D094EAD6
:10243000050F08BF90EA020F05D054EA000C04BF54
:102440001946104630BD91EA030F1EBF002100203F
:1024500030BD5FEA545C05D14000494128BF41F0DE
:10246000004130BD14F580043CBF01F5801130BD42
:1024700001F0004545F0FE4141F470014FF00000CD
:1024800030BD7FEA645C1ABF194610467FEA655C7E
:102490001CBF0B46024650EA013406BF52EA033520
:1024A00091EA030F41F4002130BD00BF90F0000F0E
:1024B00004BF0021704730B54FF4806404F132044A
:1024C0004FF000054FF0000150E700BF90F0000F03
:1024D00004BF0021704730B54FF4806404F132042A
:1024E00010F0004548BF40424FF000013EE700BFFA
:1024F00042004FEAE2014FEA31014FEA02701FBF8A
:1025000012F07F4393F07F4F81F06051704792F05B
:10251000000F14BF93F07F4F704730B54FF46074D5
:1025200001F0004521F0004120E700BF50EA010220
:1025300008BF704730B54FF000050AE050EA0102CD
:1025400008BF704730B511F0004502D5404261EB3D
:1025500041014FF4806404F132045FEA915C3FF47E
:10256000DCAE4FF003025FEADC0C18BF03325FEA17
:10257000DC0C18BF033202EBDC02C2F1200300FACC
:1025800003FC20FA02F001FA03FE40EA0E0021FAF1
:1025900002F11444C1E600BF70B54FF0FF0C4CF4DB
:1025A000E06C1CEA11541DBF1CEA135594EA0C0F91
:1025B00095EA0C0F00F0DEF82C4481EA030621EACC
:1025C0004C5123EA4C5350EA013518BF52EA033507
:1025D00041F4801143F4801338D0A0FB02CE4FF0B9
:1025E0000005E1FB02E506F00042E0FB03E54FF0E9
:1025F0000006E1FB03569CF0000F18BF4EF0010EE1
:10260000A4F1FF04B6F5007F64F5407404D25FEADC
:102610004E0E6D4146EB060642EAC62141EA55518F
:102620004FEAC52040EA5E504FEACE2EB4F1FD0CD1
:1026300088BFBCF5E06F1ED8BEF1004F08BF5FEA4F
:10264000500E50F1000041EB045170BD06F0004601
:1026500046EA010140EA020081EA0301B4EB5C04AE
:10266000C2BFD4EB0C0541EA045170BD41F48011A6
:102670004FF0000E013C00F3AB8014F1360FDEBFCB
:10268000002001F0004170BDC4F10004203C35DAA7
:102690000C341BDC04F11404C4F1200500FA05F32A
:1026A00020FA04F001FA05F240EA020001F00042CB
:1026B00021F0004110EBD37021FA04F642EB060141
:1026C0005EEA430E08BF20EAD37070BDC4F10C046B
:1026D000C4F1200500FA04F320FA05F001FA04F22F
:1026E00040EA020001F0004110EBD37041F100011B
:1026F0005EEA430E08BF20EAD37070BDC4F1200526
:1027000000FA05F24EEA020E20FA04F301FA05F28D
:1027100043EA020321FA04F001F0004121FA04F235
:1027200020EA020000EBD3705EEA430E08BF20EA05
:10273000D37070BD94F0000F0FD101F0004640003F
:1027400041EB010111F4801F08BF013CF7D041EAC1
:10275000060195F0000F18BF704703F000465200C5
:1027600043EB030313F4801F08BF013DF7D043EA96
:102770000603704794EA0C0F0CEA135518BF95EA4C
:102780000C0F0CD050EA410618BF52EA4306D1D1D3
:1027900081EA030101F000414FF0000070BD50EAF2
:1027A000410606BF1046194652EA430619D094EA7C
:1027B0000C0F02D150EA013613D195EA0C0F05D166
:1027C00052EA03361CBF104619460AD181EA0301BA
:1027D00001F0004141F0FE4141F470014FF0000072
:1027E00070BD41F0FE4141F4780170BD70B54FF00D
:1027F000FF0C4CF4E06C1CEA11541DBF1CEA13558D
:1028000094EA0C0F95EA0C0F00F0A7F8A4EB05046E
:1028100081EA030E52EA03354FEA013100F0888065
:102820004FEA03334FF0805545EA131343EA12632E
:102830004FEA022245EA111545EA10654FEA0026E3
:102840000EF000419D4208BF964244F1FD0404F59C
:10285000407402D25B084FEA3202B61A65EB0305F8
:102860005B084FEA32024FF480104FF4002CB6EBB5
:10287000020E75EB030E22BFB61A754640EA0C0035
:102880005B084FEA3202B6EB020E75EB030E22BF75
:10289000B61A754640EA5C005B084FEA3202B6EBB6
:1028A000020E75EB030E22BFB61A754640EA9C0075
:1028B0005B084FEA3202B6EB020E75EB030E22BF45
:1028C000B61A754640EADC0055EA060E18D04FEA03
:1028D000051545EA16754FEA06164FEAC30343EAA3
:1028E00052734FEAC2025FEA1C1CC0D111F4801F70
:1028F0000BD141EA00014FF000004FF0004CB6E769
:1029000011F4801F04BF01430020B4F1FD0C88BF07
:10291000BCF5E06F3FF6AFAEB5EB030C04BFB6EB12
:10292000020C5FEA500C50F1000041EB045170BD05
:102930000EF0004E4EEA113114EB5C04C2BFD4EB32
:102940000C0541EA045170BD41F480114FF0000EB6
:10295000013C90E645EA060E8DE60CEA135594EA32
:102960000C0F08BF95EA0C0F3FF43BAF94EA0C0F35
:102970000AD150EA01347FF434AF95EA0C0F7FF4AA
:1029800025AF104619462CE795EA0C0F06D152EAFE
:1029900003353FF4FDAE1046194622E750EA4106E2
:1029A00018BF52EA43067FF4C5AE50EA41047FF4F3
:1029B0000DAF52EA43057FF4EBAE12E74FF0FF3C58
:1029C00006E000BF4FF0010C02E000BF4FF0010C29
:1029D0004DF804CD4FEA410C7FEA6C5C4FEA430CA2
:1029E00018BF7FEA6C5C1BD001B050EA410C0CBFF1
:1029F00052EA430C91EA030F02BF90EA020F002053
:102A0000704710F1000F91EA030F58BF994208BFB9
:102A100090422CBFD8176FEAE37040F00100704776
:102A20004FEA410C7FEA6C5C02D150EA013C07D1CD
:102A30004FEA430C7FEA6C5CD6D152EA033CD3D018
:102A40005DF8040B704700BF8446104662468C4612
:102A50001946634600E000BF01B5FFF7B7FF002845
:102A600048BF10F1000F01BD4DF808EDFFF7F4FF6E
:102A70000CBF012000205DF808FB00BF4DF808EDF9
:102A8000FFF7EAFF34BF012000205DF808FB00BF1C
:102A90004DF808EDFFF7E0FF94BF012000205DF83E
:102AA00008FB00BF4DF808EDFFF7CEFF94BF0120F3
:102AB00000205DF808FB00BF4DF808EDFFF7C4FFEC
:102AC00034BF012000205DF808FB00BF4FEA410C35
:102AD0007FEA6C5C02D150EA013C0AD14FEA430C18
:102AE0007FEA6C5C02D152EA033C02D14FF0000055
:102AF00070474FF00100704780F0004002E000BFD7
:102B000081F0004142001FBF5FEA410392EA030FD8
:102B10007FEA226C7FEA236C6AD04FEA1262D2EB22
:102B20001363C1BFD218414048404140B8BF5B4227
:102B3000192B88BF704710F0004F40F4000020F0C0
:102B40007F4018BF404211F0004F41F4000121F0D6
:102B50007F4118BF494292EA030F3FD0A2F1010220
:102B600041FA03FC10EB0C00C3F1200301FA03F15E
:102B700000F0004302D5494260EB4000B0F5000F81
:102B800013D3B0F1807F06D340084FEA310102F140
:102B90000102FE2A51D2B1F1004F40EBC25008BFF2
:102BA00020F0010040EA03007047490040EB0000BC
:102BB00010F4000FA2F10102EDD1B0FA80FCACF1EB
:102BC000080CB2EB0C0200FA0CF0AABF00EBC250EA
:102BD00052421843BCBFD0401843704792F0000FD8
:102BE00081F4000106BF80F400000132013BB5E72B
:102BF0004FEA41037FEA226C18BF7FEA236C21D0A1
:102C000092EA030F04D092F0000F08BF0846704705
:102C100090EA010F1CBF0020704712F07F4F04D1D3
:102C2000400028BF40F00040704712F100723CBFE6
:102C300000F50000704700F0004343F0FE4040F410
:102C4000000070477FEA226216BF08467FEA2363CE
:102C50000146420206BF5FEA412390EA010F40F4B9
:102C6000800070474FF0000304E000BF10F0004305
:102C700048BF40425FEA000C08BF704743F09643EC
:102C800001464FF000001CE050EA010208BF704707
:102C90004FF000030AE000BF50EA010208BF70478E
:102CA00011F0004302D5404261EB41015FEA010CA3
:102CB00002BF84460146002043F0B64308BFA3F19B
:102CC0008053A3F50003BCFA8CF2083AA3EBC2537D
:102CD00010DB01FA02FC634400FA02FCC2F120029C
:102CE000BCF1004F20FA02F243EB020008BF20F0D3
:102CF0000100704702F1200201FA02FCC2F1200239
:102D000050EA4C0021FA02F243EB020008BF20EA2D
:102D1000DC7070474FF0FF0C1CEAD0521EBF1CEA5B
:102D2000D15392EA0C0F93EA0C0F6FD01A4480EA49
:102D3000010C400218BF5FEA41211ED04FF0006332
:102D400043EA501043EA5111A0FB01310CF000405E
:102D5000B1F5000F3EBF490041EAD3715B0040EA84
:102D6000010062F17F02FD2A1DD8B3F1004F40EB54
:102D7000C25008BF20F00100704790F0000F0CF027
:102D8000004C08BF49024CEA502040EA51207F3AEB
:102D9000C2BFD2F1FF0340EAC250704740F40000C6
:102DA0004FF00003013A5DDC12F1190FDCBF00F0B7
:102DB00000407047C2F10002410021FA02F1C2F165
:102DC000200200FA02FC5FEA310040F1000053EA01
:102DD0004C0308BF20EADC70704792F0000F00F04F
:102DE000004C02BF400010F4000F013AF9D040EA55
:102DF0000C0093F0000F01F0004C02BF490011F4E9
:102E0000000F013BF9D041EA0C018FE70CEAD153E6
:102E100092EA0C0F18BF93EA0C0F0AD030F0004C66
:102E200018BF31F0004CD8D180EA010000F000401A
:102E3000704790F0000F17BF90F0004F084691F0D8
:102E4000000F91F0004F14D092EA0C0F01D1420212
:102E50000FD193EA0C0F03D14B0218BF084608D1DB
:102E600080EA010000F0004040F0FE4040F4000025
:102E7000704740F0FE4040F4400070474FF0FF0CB8
:102E80001CEAD0521EBF1CEAD15392EA0C0F93EAFF
:102E90000C0F69D0A2EB030280EA010C49024FEA51
:102EA000402037D04FF0805343EA111143EA10130A
:102EB0000CF000408B4238BF5B0042F17D024FF4C2
:102EC000000C8B4224BF5B1A40EA0C00B3EB510F9D
:102ED00024BFA3EB510340EA5C00B3EB910F24BF86
:102EE000A3EB910340EA9C00B3EBD10F24BFA3EB0B
:102EF000D10340EADC001B0118BF5FEA1C1CE0D1D3
:102F0000FD2A3FF650AF8B4240EBC25008BF20F085
:102F1000010070470CF0004C4CEA50207F32C2BFD9
:102F2000D2F1FF0340EAC250704740F400004FF076
:102F30000003013A37E792F0000F00F0004C02BFA7
:102F4000400010F4000F013AF9D040EA0C0093F071
:102F5000000F01F0004C02BF490011F4000F013BCB
:102F6000F9D041EA0C0195E70CEAD15392EA0C0F33
:102F700008D142027FF47DAF93EA0C0F7FF470AF6B
:102F8000084676E793EA0C0F04D14B023FF44CAFAE
:102F900008466EE730F0004C18BF31F0004CCAD143
:102FA00030F000427FF45CAF31F000437FF43CAF7F
:102FB0005FE700BF4FF0FF3C06E000BF4FF0010CA1
:102FC00002E000BF4FF0010C4DF804CD4FEA400283
:102FD0004FEA41037FEA226C18BF7FEA236C11D0CD
:102FE00001B052EA530C18BF90EA010F58BFB2EB80
:102FF000030088BFC81738BF6FEAE17018BF40F000
:10300000010070477FEA226C02D15FEA402C05D1B3
:103010007FEA236CE4D15FEA412CE1D05DF8040B38
:10302000704700BF844608466146FFE70FB5FFF7CB
:10303000C9FF002848BF10F1000F0FBD4DF808ED83
:10304000FFF7F4FF0CBF012000205DF808FB00BF74
:103050004DF808EDFFF7EAFF34BF012000205DF8CE
:1030600008FB00BF4DF808EDFFF7E0FF94BF01201B
:1030700000205DF808FB00BF4DF808EDFFF7D2FF18
:1030800094BF012000205DF808FB00BF4DF808ED5B
:10309000FFF7C8FF34BF012000205DF808FB00BF28
:1030A000014B1868704700BFE88DFF1F70B50F4EC9
:1030B0000F4D761BB61018BF002405D0013455F80B
:1030C000043B9847A642F9D10A4E0B4D761B04F0FB
:1030D00037FBB61018BF002406D0013455F8043B66
:1030E0009847A642F9D170BD70BD00BF4C77000073
:1030F0004C770000547700004C770000024B0146EB
:10310000186800F003B800BFE88DFF1F2DE9F04FED
:1031100001F10B05162D83B0064640F29F8035F075
:10312000070500F1BF80A94200F2BC8000F06EFBF1
:10313000B5F5FC7FC0F09C826B0A00F0BA80042BCE
:1031400000F28381A80900F1390E4FEA4E033830AE
:10315000C44F07EB8303A3F108015C68A14207D1C8
:10316000ACE0002A80F2AC80E468A14200F0A680C6
:10317000636823F003035A1B0F2AF2DDB9493C6947
:1031800001F1080E744500F0B381636823F0030376
:103190005A1B0F2A00F39981002AC1F814E0C1F8E4
:1031A00010E080F29E80B3F5007F80F06781DB083D
:1031B00003F1010C01229B1002FA03F34A6851F853
:1031C0003C80C4F8088001EBCC091A43A9F108033C
:1031D000E3604A6041F83C40C8F80C408310012489
:1031E0009C40944200F28A80144206D120F00300F1
:1031F0006400144200F10400FAD007EBC009CC4689
:103200008046DCF80C108C4507D173E1002A80F26F
:103210008181C9688C4500F06D814B6823F0030300
:103220005A1B0F2AF2DD0C46D1F80CC054F8088F57
:103230004B1945F001054D6042F00101C8F80CC082
:103240003046CCF808807B613B61C3F80CE0C3F8E2
:1032500008E059609A5000F0DBFA1FE0102921D8ED
:1032600000F0D4FA1025062302207E4F07EB8303DB
:10327000A3F108025C68944200F045816368E1684C
:10328000A56823F00303234430465A68E96042F0FE
:1032900001028D605A6000F0BBFA0834204603B08A
:1032A000BDE8F08F00240C232046336003B0BDE856
:1032B000F08F80234FF0400E3F2049E770465DE7D6
:1032C0002344E1685A68A56842F00102E96030468B
:1032D0008D605A6000F09CFA0834204603B0BDE8C7
:1032E000F08F234430465A6842F001025A6000F0E1
:1032F0008FFA0834204603B0BDE8F08FBC686368DD
:1033000023F00308A84504D3C5EB08030F2B00F3F3
:103310008C80554BDFF860911A68D9F80030013382
:103320002A4404EB080A00F0608102F580520F3253
:1033300022F47F6222F00F0211463046019200F023
:1033400059FCB0F1FF3F8346019A00F05881824555
:1033500000F2FC80454B1968DA451144196000F011
:103360005381D9F80000DFF810E101301BBFCAEB30
:103370000B0A5144CEF800B019601BF0070100F0B1
:103380001781C1F10800C1F58051834408315A44C6
:10339000C2F30B02C2EB010949463046019300F02B
:1033A00029FC431C019B00F03F81CBEB00024A4407
:1033B00042F001021968C7F808B04944BC42CBF892
:1033C00004201960DFF8A49016D0B8F10F0F40F276
:1033D000FD806268A8F10C0323F00703E01802F0F7
:1033E00001024FF0050E1A430F2B6260C0F804E093
:1033F000C0F808E000F21C811D4BBC681A689142BD
:1034000088BF19601B4B1A689142626888BF1960B7
:1034100022F003029542A2EB050301D80F2B04DC36
:10342000304600F0F5F9002438E7621943F0010353
:1034300045F0010565603046BA60536000F0E8F978
:103440000834204603B0BDE8F08F142B71D9542BFB
:1034500000F2A480280B00F16F0E4FEA4E036E308D
:1034600076E600BF588FFF1FCC94FF1FD094FF1F3C
:10347000C894FF1FC494FF1F6493FF1F5A0A042AB5
:103480005ED9142A00F2B38002F15C0149005B327C
:1034900007EB810C57F82110DFF8DC81ACF1080C48
:1034A0008C4500F088804A6822F00302934202D2E1
:1034B00089688C45F7D1D1F80CC07A68C4F80CC083
:1034C000A160CCF80840CC6088E6631942F001079F
:1034D00045F00105656030464B610B61C3F80CE0B7
:1034E000C3F808E05F609A50083400F091F9D5E61F
:1034F0004A6873E608F1010818F0030F0CF1080C94
:103500007FF47FAE30E0DC68A34208BF02303FF4B6
:1035100035AEB3E60B440C465A68C96854F8085FE8
:1035200042F001025A603046E9608D6000F070F9A7
:10353000B4E603F15C0E03F15B004FEA4E0307E6CD
:103540009A0902F1390149003832A1E7BC424A4BDD
:103550003FF400AF9C68626822F003025AE759F812
:103560000839994540F0828010F0030F00F1FF30D8
:10357000F5D17B6823EA04037B6064009C423FF63C
:10358000BDAE002C3FF4BAAE1C4240467FF435AECF
:1035900064001C4200F10400FAD02EE6B3F5AA7FC5
:1035A00018D8E80B00F1780E4FEA4E037730CFE5DC
:1035B0004FF48051EBE60121D8F80430921001FA63
:1035C00002F21A43C8F80420614677E70123CBF8DA
:1035D000043025E740F25452934220D8A80C00F161
:1035E0007D0E4FEA4E037C30B2E51032A4E6542A39
:1035F00026D81A0B02F16F0149006E3248E7BC6809
:10360000626822F0030205E7CAF30B0000287FF48A
:10361000A8AE4244BB6842F001025A60ECE6FE23C9
:103620004FF07F0E7E2093E501224FF00009C1E6A6
:1036300004F10801304602F029FFD9F80010DBE65A
:10364000B2F5AA7F05D8DA0B02F17801490077328A
:103650001EE740F254518A4205D89A0C02F17D01CE
:1036600049007C3214E7FE217E2211E77B6884E763
:10367000E808431C5B00F8E5588FFF1F82B049B192
:103680005AB16BB113780B601278101C18BF01206F
:1036900002B0704701A9002AF3D1104602B070476A
:1036A0006FF00100F4E700BF8842F0B50DD98B1828
:1036B00098420AD28118002A51D09A1A13F8014D63
:1036C00001F8014D9342F9D1F0BD0F2A48D941EAE2
:1036D00000039B0746D100F1100401F110031546C9
:1036E00053F8106C44F8106C53F80C6C44F80C6CE4
:1036F00053F8086C44F8086C103D53F8046C44F817
:10370000046C0F2D03F1100304F11004E8D8A2F1AA
:10371000100323F00F0302F00F0E1033BEF1030F5E
:103720001944034421D91E1F0D467446043C55F824
:10373000047B46F8047F032CF8D8AEF1040424F08F
:10374000030404342344214402F0030262B1013B28
:103750000A4411F8014B03F8014F8A42F9D1F0BD38
:103760000346F3E70346F2E7F0BD7246EEE700BF1B
:1037700070B4840746D0541E002A41D0CDB203460F
:1037800002E0621EE4B3144603F8015B9A07F8D125
:10379000032C2ED9CDB245EA05250F2C45EA054567
:1037A00019D903F110022646103E0F2E42F8105C84
:1037B00042F80C5C42F8085C42F8045C02F110022A
:1037C000F2D8A4F1100222F00F0204F00F0410321C
:1037D000032C13440DD91E462246043A032A46F808
:1037E000045BFAD8221F22F003020432134404F0CF
:1037F00003042CB1C9B21C4403F8011BA342FBD142
:1038000070BC704714460346C2E700BF704700BF54
:10381000704700BF2DE9F04F174683B0002900F034
:10382000C1800E46814607F10B05FFF7EFFF56F802
:1038300004EC162D2EF00304A6F1080840D810223F
:103840001546AF4241D8944275DAC94B996808EBE6
:1038500004008842416800F0D98021F0010303444C
:103860005B68DB077DD51EF0010F35D03946484631
:10387000FFF74CFC0746E0B156F8043C23F0010387
:103880004344A0F108029A4200F04481221F242AF6
:1038900000F23181132A00F2048103463246116896
:1038A00019605168596092689A603146484602F042
:1038B000EDFD4846FFF7ACFF384603B0BDE8F08F9A
:1038C00025F00705002D2A46BBDA0C230020C9F895
:1038D000003003B0BDE8F08F56F8083CC3EB080A8F
:1038E000DAF8043023F0030C04EB0C039342BDDB45
:1038F0005746DAF80C1057F8080F221F242AC16027
:10390000886000F21781132A40F212813168CAF8E8
:1039100008107168CAF80C101B2A00F22B810836B7
:103920000AF110023168116071685160B1689160EC
:103930003E461C46D046631B0F2B1DD8D8F80430DA
:1039400003F0010323434444C8F80430636843F0A0
:10395000010363604846FFF75BFF304603B0BDE8F4
:10396000F08F21F003012144914221DBC36882687A
:103970000C46D3609A60DEE7D8F8042008EB050116
:1039800002F00102154343F001020B44C8F8045051
:103990004A605A6842F0010208315A60484602F013
:1039A00075FDD7E7114603B0BDE8F04FFFF7AEBB9A
:1039B0001EF0010F7FF45AAF56F8083CC3EB080A1B
:1039C000DAF8043023F0030C01EB0C0E96458BDB88
:1039D000C36882685746D3609A6057F8081FDAF8C0
:1039E0000C30CB60221F242A996000F29980132AA0
:1039F00062D93368CAF808307368CAF80C301B2AD9
:103A000000F2A08008360AF1100356E021F0030B03
:103A1000A34405F11000834559DA1EF0010F7FF42D
:103A200025AF56F8081CC1EB080ADAF8041021F09B
:103A3000030CE34458453FF757AF5746DAF80C10EC
:103A400057F8080F221F242AC160886000F2B48052
:103A5000132A40F2A5803168CAF808107168CAF8C4
:103A60000C101B2A00F2AF8008360AF110023168F0
:103A7000116071685160B16891600AEB0501C5EB96
:103A80000B0242F0010299604A60DAF8043003F058
:103A900001031D434846CAF80450FFF7B9FE3846F3
:103AA0005CE733680360736843601B2A27D800F122
:103AB000080306F10802F2E63B4632681A607268B3
:103AC0005A60B2689A603E467446D04633E708EBC7
:103AD0000501C5EB0B0B4BF0010299604A6056F8EB
:103AE000043C03F001031D43484646F8045CFFF71D
:103AF0008FFE304632E73146FFF7D6FDD5E6B36894
:103B00008360F368C360242A28D000F1100306F113
:103B10001002C4E650F8043C23F003031C440AE7F7
:103B2000314638467446D046FFF7BEFD3E4602E7B2
:103B30003A46F7E6314638461C46D046FFF7B4FD14
:103B40003E46F8E6B368CAF81030F368CAF8143095
:103B5000242A1BD010360AF11803AEE7336903613B
:103B60007369436106F1180200F1180397E600BF7C
:103B7000588FFF1FB168CAF81010F168CAF8141006
:103B8000242A0FD010360AF11802CBE63369CAF89E
:103B900018307369CAF81C3018360AF120038CE714
:103BA0003A4664E73269CAF818207269CAF81C20DC
:103BB00018360AF12002B5E6314638460193FFF780
:103BC00073FD019B59E7B168CAF81010F168CAF893
:103BD0001410242A03D010360AF1180247E732697C
:103BE000CAF818207269CAF81C2018360AF1200297
:103BF0003DE700BF38B5074C002305460846236063
:103C0000FCF724FF431C00D038BD2368002BFBD0F9
:103C10002B6038BD0C95FF1F0EB4F0B59CB021ABE6
:103C20000F4953F8042B019305466FF000440868D0
:103C300002954FF402774FF6FF7602A90695ADF88C
:103C4000147004940794ADF8166000F087F8029B96
:103C500000221A701CB0BDE8F04003B0704700BFEE
:103C6000E88DFF1FFFFFFFFFFFFFFFFFFFFFFFFFCD
:103C7000FFFFFFFFFFFFFFFFFFFFFFFFFFFFFFFF54
:103C800090F800F06DE9024520F007016FF0000C9C
:103C900010F0070491F820F040F049804FF0000444
:103CA0006FF00700D1E9002391F840F000F108001F
:103CB00082FA4CF2A4FA8CF283FA4CF3A2FA8CF357
:103CC0004BBBD1E9022382FA4CF200F10800A4FABE
:103CD0008CF283FA4CF3A2FA8CF3E3B9D1E9042312
:103CE00082FA4CF200F10800A4FA8CF283FA4CF349
:103CF000A2FA8CF37BB9D1E9062301F1200182FA03
:103D00004CF200F10800A4FA8CF283FA4CF3A2FA08
:103D10008CF3002BC6D0002A04BF04301A4612BA16
:103D2000B2FA82F2FDE8024500EBD2007047D1E919
:103D3000002304F00305C4F100004FEAC50514F0A8
:103D4000040F91F840F00CFA05F562EA05021CBF79
:103D500063EA050362464FF00004A9E72DE9F04F3E
:103D6000C1B00C46099115460E930A9002F076FCFC
:103D7000036817931846FFF783FFA38916901E0662
:103D800003D52369002B01F01A8100231A461293F0
:103D90002593249319930B93DFF864A4149230AB0A
:103DA000239399461592A84698F800304446EBB103
:103DB000252B02D11AE0252B03D014F8013F002B4C
:103DC000F9D1C8EB04058DB1249B259AC9F8008070
:103DD00001332A44072BC9F804502592249300F399
:103DE000A68009F108090B9B2B440B932378002B29
:103DF00000F0A68000231A468DF86F3019460C9308
:103E000007934FF0FF3B637804F101085D4608F12A
:103E10000108A3F12000582800F22584DFE810F003
:103E2000880323042304900323042304230423048A
:103E3000230423049703A50323045D00E200230465
:103E4000FE0005010501050105010501050105014A
:103E5000050105012304230423042304230423046C
:103E60002304230423042304150181022304810273
:103E70002304230423042304C60223042304CD02C1
:103E800023042304230423042304F7022304230428
:103E900025032304230423042304230423042304E9
:103EA000230423042304660379038102810281022F
:103EB0008103790323042304D1032304DB03A30038
:103EC0006400EE032304F5032304AA03230423045C
:103ED000BC030C980E9340420C90079B43F00403E4
:103EE000079398F8003092E70E98AB4600210468DB
:103EF0008DF86F10071D0798302378228B458DF8B9
:103F000070304FF000058DF8712040F00203C0F2D0
:103F1000C78320F0800343F00203079354EA0503AC
:103F20000E9700F093830F461192B348CEE223AA76
:103F300009990A9802F002FF48B90DF1C00952E749
:103F4000259B23B10A98099923AA02F0F7FE099B41
:103F50009B8913F0400F0B9B18BF4FF0FF3318469F
:103F600041B0BDE8F08F1193AB46002A41F0338297
:103F7000079A12F0200300F02E820E9F073727F0D9
:103F80000703002703F10801BB450E91D3E9004563
:103F90008DF86F70C0F2798722F08003079354EA9E
:103FA000050300F0758330AEE20842EA4572E90885
:103FB00004F007030D461446303354EA050206F8B0
:103FC000013DF1D1079AD10740F18480302B00F0F8
:103FD00081803022731E06F8012C30AAD21A0D926D
:103FE0001E467AE098F800302A2B08F1010401F00F
:103FF000B981A3F13000092898BF002501F26C8136
:1040000014F8013B05EB850500EB4505A3F13000F5
:104010000928F5D945EAE575A046FAE6079B43F07D
:104020008003079398F80030F1E6A3F130000023F5
:104030001C4618F8013B04EB840400EB4404A3F194
:1040400030000928F5D90C94E3E61193AB46002A19
:1040500041F0AB81079B43F010030793079B980641
:1040600040F130850E9F073727F00707D7E9002377
:1040700007F108010E9114461D46002A73F1000352
:10408000C0F25B85BBF1000F9DF86F70C0F2388500
:10409000079B23F08003079354EA050300F0DB81BC
:1040A000002D08BF0A2CC0F0DB8130AE2046294627
:1040B0000A22002302F06CFF303206F8012D204660
:1040C000294600230A2202F063FF04460D4654EA03
:1040D0000503EBD130AB9B1B0D930D9B5B45B8BF2C
:1040E0005B4608930023139317B1089B0133089391
:1040F000079B13F002030F9302D0089B023308932F
:10410000079B13F08403109340F0D7820C9B089A0E
:104110009D1A002D40F3D182102D2599249A374FF6
:1041200027DD189648461024B946099E2F460A9D59
:1041300004E0103F102F00F1080016DD01322F4B74
:1041400024921031072A259180E81800F1DD23AA76
:104150003146284602F0F2FD00287FF4F8AE103F09
:10416000102F2599249A30A8E8DC189E3D464F462A
:10417000814601326C18072A25942492C9F80070F0
:10418000C9F8045000F328849DF86F7009F10809FC
:1041900077B1249B013301340DF16F010122072B0C
:1041A0002594249389E8060000F3A08309F1080907
:1041B0000F9B6BB1249B013302341CA90222072BF5
:1041C0002594249389E8060000F39C8309F10809EB
:1041D000109B802B00F0D5820D9BC3EB0B07002FAB
:1041E00039DD074A249B0F92102F28DD22464FF01D
:1041F000100B0A9D099C0AE0FC7400001C7500006D
:10420000C8740000103F102F09F1080916DD0133B2
:104210001032072B2592249389E8000CF2DD23AAA3
:104220002146284602F08AFD00287FF490AE103F18
:10423000102F259A249B0DF1C009E8DC14460133A8
:104240000F9A24933C44072B259489E8840000F3BB
:10425000418309F10809079BDA0500F13082249BAC
:104260000D99C9F8006001330C44072B2594C9F857
:104270000410249300F3188309F10809079B5907D8
:104280003FD50C9B089A9D1A002D3ADD102D249BDA
:10429000BC4F23DD22461026DDF828B0099C04E03F
:1042A000103D102D09F1080917DD0133B54924939C
:1042B0001032072B259289E84200F1DD23AA21461E
:1042C000584602F03BFD00287FF441AE103D102D12
:1042D000259A249B0DF1C009E7DC144601332C44D8
:1042E000072B25942493C9F80070C9F8045008DD01
:1042F00023AA09990A9802F021FD00287FF427AE2D
:10430000259C0B9B0C9A08998A42ACBF9B185B18A2
:104310000B93002C40F0D482002324930DF1C009AC
:1043200042E51193AB46002A41F051800E9F0737BA
:1043300027F0070303F108020E921A6814925B68D3
:104340001593159B149D23F00044284621464FF0F9
:10435000FF328D4BFEF7BAFB002840F0C28428469E
:1043600021464FF0FF32884BFEF792FB002840F0C9
:10437000B8841498159900220023FEF77FFB0028CB
:1043800040F04F879DF86F70804E814B079921F068
:1043900080010791119903224FF0000B08924729E1
:1043A000D8BF1E460D92CDF84CB09DE6079B43F05A
:1043B0000803079398F8003029E51193AB46002ACB
:1043C00041F01180079B43F010030793079A12F006
:1043D00020037FF4D2AD079911F0100200F02C8574
:1043E0000E988DF86F30BBF1000F046800F10407E0
:1043F0004FF00005C0F248850A4622F0800207927D
:1044000054EA05020E9700F043811F46CBE5119355
:10441000AB46002A40F0E387079B43F01003079365
:10442000079A12F0200300F032830E9F073727F01F
:104430000703002703F10801BB450E91D3E90045AE
:104440008DF86F70C0F25C8322F08003079354EA0A
:1044500005037FF425AEBBF1000F00F0FE800024C1
:1044600040AE303406F8414D34E61193AB46002A95
:1044700040F09787079B47489D0640F197800E9F25
:10448000073727F00703D3E9004503F108020E922E
:10449000079A12F0010700F0418254EA050300F088
:1044A00005859DF844208DF871200027079A8DF826
:1044B0006F703023BB458DF8703042F00203C0F2BC
:1044C000B58622F0800343F00203079330AE230940
:1044D00004F00F0143EA05732A091C461546435CA4
:1044E00006F8013D54EA0503F1D1F3E50E99119365
:1044F0000A688DF8982000230A461F468DF86F3011
:10450000043201230893BB4613970E920D9326AEF7
:10451000EEE51193AB46002A3FF4A0AD8DF86F1085
:104520009CE5079B43F04003079398F800306EE446
:1045300098F8003000297FF46AAC0122202166E45B
:10454000079B43F00103079398F800305FE40E9C4B
:1045500023680C9318460028234603F10403FFF652
:10456000B8AC0E9398F8003051E498F8003001226E
:104570002B214CE41193AB46002A3FF451AF8DF848
:104580006F104DE71C750000FFFFEF7FDC7400002B
:10459000D8740000E87400001193AB46002A40F084
:1045A0002A87079B99489D063FF569AF079BDC0664
:1045B00040F135840E9A1346043314680E93002597
:1045C00066E798F800306C2B00F0E284079840F022
:1045D000100007901BE4002A40F00987079B9B0608
:1045E00040F106840E9A0B991368CD1708460432E1
:1045F00029460E92C3E90001FFF7D6BB079B43F0A3
:104600002003079398F8003001E40E9A119316687E
:1046100000248DF86F40171D002E00F0CD85002D71
:10462000C0F218852A462146304602F029F80028B3
:1046300000F02A86831B0D93A34623EAE3730E97AB
:104640000893CDF84CB09DF86F704DE56F4811920E
:10465000BBF1000F40F073815F464FF0000BCDF8C7
:1046600034B030AE39E51193002A40F0AC86119A8F
:10467000002A3FF465AC002301211F4608918DF804
:1046800098208DF86F309B4613930D9126AE2FE541
:10469000BBF1000F00F0038600270024002582E410
:1046A0005A480793119254EA05030E974FF00007FA
:1046B0007FF40CAF0024002508E7259C68E5119BDA
:1046C000652B40F3A9801498159900220023FEF76A
:1046D000CBF9002800F03581249B4D4AC9F8002011
:1046E000013301340122072B25942493C9F80420B7
:1046F00000F3E88309F108091D9B129A934203DB3A
:10470000079BDB077FF5BAAD249B1699179AC9F86A
:10471000002001330C44072B2594C9F8041024937E
:1047200000F3408409F10809129B5D1E002D7FF7FC
:10473000A5AD384A249B0F92102D40F3E681102638
:104740000A9FDDF824B005E009F10809103D102D9D
:1047500040F3DB8101331034072B25942493C9F8EF
:1047600000A0C9F80460EFDD23AA5946384602F0DC
:10477000E5FA00287FF4EBAB259C249B0DF1C009E2
:10478000E4E70C9B089A9F1A002F7FF725AD214A7A
:10479000249B0F92102F2BDD4A462146B946102547
:1047A00037460A9C099E06E0A9F11009B9F1100FDD
:1047B00002F1080218DD01331031072B25912493F3
:1047C000C2F800A05560EFDD23AA3146204602F072
:1047D000B5FA00287FF4BBABA9F11009B9F1100FAD
:1047E0002599249B30AAE6DC3E460C464F4691466E
:1047F00001330F9A24933C44072B259489E88400C5
:1048000000F3458209F10809E6E400BFFC740000EA
:1048100018750000C8740000129B249D012B40F302
:104820000882013501340123072D25942495C9F808
:104830000060C9F8043000F30D8209F10809169AE6
:10484000179BC9F8003001351444072D2594249591
:10485000C9F8042000F30E8209F108090023149816
:1048600015990022FEF700F9129B002840F0C38042
:10487000013B013501361C44072D24952594C9F8C8
:104880000060C9F8043000F3F58009F10809199AAD
:10489000C9F80420013514441FAB072D2594249535
:1048A000C9F800307FF7E8AC23AA09990A9802F00A
:1048B00045FA00287FF44BAB259C0DF1C009DDE4DF
:1048C00023AA09990A9802F039FA00283FF424AD86
:1048D000FFF73DBB23AA09990A9802F02FFA002896
:1048E0007FF435AB259C0DF1C009B4E423AA0999E6
:1048F0000A9802F023FA00287FF429AB259C0DF1D9
:10490000C00955E423AA09990A9802F017FA002869
:104910007FF41DAB259C0DF1C00959E4BBF1000FDC
:104920008DF86F70C0F2DA8222F08003079354EAA8
:1049300005037FF4CBADBBF1000F3FF48DAE002734
:10494000B8E61D9D002D40F3CC82139B129A934232
:10495000A8BF1346002B1D460DDD249BC9F800603F
:1049600001332C44072B2594C9F80450249300F3F9
:10497000A38309F10809139B002DA8BF5B1B002B23
:104980001D4640F3F680BA4A249B0F92102D40F347
:10499000808222461027DDF828B0099C05E009F145
:1049A0000809103D102D40F3738201331032072B9C
:1049B00025922493C9F800A0C9F80470EFDD23AA5A
:1049C0002146584602F0BAF900287FF4C0AA259A79
:1049D000249B0DF1C009E4E723AA09990A9802F083
:1049E000ADF900287FF4B3AA9DF86F70259C0DF1F6
:1049F000C009FFF7CDBB5E1E002E7FF748AF9C4B72
:104A00000F93102E2CDDCDF834801027B046DDF842
:104A100028B0099E06E0A8F11008B8F1100F09F1BE
:104A200008091ADD01351034072D25942495C9F89D
:104A300000A0C9F80470EEDD23AA3146584602F002
:104A40007DF900287FF483AAA8F11008B8F1100FAF
:104A5000259C249D0DF1C009E4DC4646DDF8348038
:104A60000F9B01353444072D2594249589E848008F
:104A70007FF70BAF23AA09990A9802F05FF9002883
:104A80007FF465AA259C249D0DF1C009FFE60799D6
:104A900011F0100200F008810E988DF86F30BBF114
:104AA000000F046800F104074FF0000526DB0A46FA
:104AB00022F08002079254EA05020E971F467FF407
:104AC000EFAAC8E4079BD9062AD4079B5A0627D524
:104AD0000E99B1F900400431E51722462B460E919C
:104AE000FFF7CBBA0E998DF86F30BBF1000F0C6851
:104AF00001F104074FF0000580F245820E971F4632
:104B000054EA05037FF4CCAAAAE401330F9A249354
:104B10002C44072B259489E824007FF7ADABC3E62E
:104B20000E9A146813460433E51722460E93002AA2
:104B30002B4673F10003BFF6A5AA64424FF02D0780
:104B400065EB4505BBF1000F8DF86F70FFF6A8AA65
:104B5000079B23F080030793FFF7A2BA23AA0999C2
:104B60000A9802F0EBF800287FF4F1A9259C0DF1DA
:104B7000C009139A1D9B32441746129A934247DB91
:104B8000079AD50744D412990E44F51BCB1A9D42BF
:104B9000A8BF1D46002D2E460DDD249AC9F80070D1
:104BA00001322C44072A2594C9F80450249200F3BA
:104BB000128309F10809002EACBF9D1B1D46002D74
:104BC0007FF75CAB2A4A249B0F92102D9DDD1026A7
:104BD0000A9FDDF824B004E009F10809103D102D0A
:104BE00093DD01331034072B25942493C9F800A0DA
:104BF000C9F80460F0DD23AA5946384602F09EF851
:104C000000287FF4A4A9259C249B0DF1C009E5E7A9
:104C1000249A16981799C9F8001001320444072AFB
:104C20002594C9F80400249200F3A58209F108092B
:104C3000A9E7079BD8073FF5F4AD013501340123FF
:104C4000072D25942495C9F80060C9F804307FF732
:104C50001CAE0FE723AA09990A9802F06FF8002802
:104C60007FF475A9259C249D0DF1C009E7E500BFDF
:104C7000C874000023AA09990A9802F05FF8002876
:104C80007FF465A9259C249D0DF1C009E6E523AAC2
:104C900009990A9802F052F800287FF458A9259C37
:104CA0000DF1C009FFF798BA079911F040033FF4DE
:104CB00019AF0E988DF86F200346BBF1000F03F17A
:104CC000040304884FF00005C0F2B98121F080018F
:104CD000079154EA05010E9317467FF4E1A9FFF707
:104CE000BABB149C22462046159C23462146FDF75C
:104CF000EDFE002840F01583119BBBF1FF3F23F030
:104D000020030D9300F07682472B00F09281079BE1
:104D100043F480731093159B1F1E149B0893BBBF15
:104D20003B4603F1004700232D230F93119B662B75
:104D300000F06382462B00F05E810D9B089A452BA4
:104D400021A81EA90CBF0BF101055D46049003913B
:104D50001DA802213B460290019500910A9800F09F
:104D600007FC119B672B064640F07D82079BDA0704
:104D700040F1BF8274190898394600220023FDF7DC
:104D800073FE002840F0A481219B9C4206D930216B
:104D90005A1C21921970219B9C42F9D89B1B12939B
:104DA0000D9B472B00F08181119B652B40F36A829C
:104DB000119B662B1D9B139300F04782139A129947
:104DC0008A42C0F23682079BD90700F1898222EA23
:104DD000E2730D92672211920F9A002A40F05B81D4
:104DE0000893109B079393469DF86F70FFF77CB96B
:104DF000079BDF060BD4079B5E0608D50E9A136847
:104E000004320E92BDF82C201A80FEF7CDBF0E9A08
:104E1000136804320E920B9A1A60FEF7C5BF079B07
:104E20000E9A13F0400F134600F00E8104331488DD
:104E30000E930025FFF72CBB079911F0400317D004
:104E40000E988DF86F200346BBF1000F03F10403A9
:104E500004884FF00005C0F2F58021F08001079131
:104E600054EA05010E933FF413AC1746FFF79BB8C5
:104E70000E998DF86F30BBF1000F0C6801F104073B
:104E80004FF0000580F281800E970027FFF78BB866
:104E9000144601330F9A24932C44072B259489E858
:104EA00024003FF75BAE09F1080962E60027BB4525
:104EB0008DF86F70FFF6FEAB079B23F0800307931E
:104EC000FFF7C6BB23AA09990A9801F037FF00280B
:104ED0007FF43DA8259C0DF1C0090DE40E9FFFF75E
:104EE000E2BB249BB14AC9F80020013301340122FE
:104EF000072B25942493C9F804206FDC09F10809D5
:104F00002DB9129B1BB9079BDF077FF5B7A9249B1F
:104F10001699179AC9F8002001330C44072B2594E1
:104F2000C9F80410249300F3C98109F108096D42FE
:104F3000002D40F3A3809E4A0F92102D40F329814B
:104F400022461027DDF828B0099C05E009F1080980
:104F5000103D102D40F31C8101331032072B259298
:104F60002493C9F800A0C9F80470EFDD23AA2146F4
:104F7000584601F0E3FE00287EF4E9AF259A249B11
:104F80000DF1C009E4E7079A92E5079AFFF735BAF1
:104F9000079B43F02003079308F1010898F80030BD
:104FA000FEF735BF23AA09990A9801F0C7FE002829
:104FB0007EF4CDAF259C0DF1C009FFF7B5BB4021B4
:104FC0000A98FEF7A3F8099A10601061002800F013
:104FD000F381099A40235361FEF7D7BE23AA0999AA
:104FE0000A9801F0ABFE00287EF4B1AF1D9D259C10
:104FF0000DF1C00984E721A81EA9049003911DA802
:1050000003210290089ACDF804B03B4600910A981B
:1050100000F0AEFA5D460646119B462B06EB0504F2
:105020007FF4A9AE3378302B00F06D811D9D2C44A8
:10503000A1E6BBF1000F08BF4FF0010B67E60E932E
:1050400017465DE50E9320E7043314680E930025A0
:10505000FFF71EBA3046FEF713FEA34603460D9037
:10506000FFF7EBBA23AA09990A9801F067FE002816
:105070007EF46DAF259C249B0DF1C0091299C9F8EF
:10508000006001330C44072B25942493C9F80410C5
:105090007FF7F2A808E42D270893109B07938DF85B
:1050A0006F704FF0000BFFF720B81D9BDD1C11DB6C
:1050B0009B450FDB139381E623AA09990A9801F017
:1050C0003DFE00287EF443AF259C0DF1C00952E45B
:1050D000234663E6119A023A1192013B002B9DF898
:1050E00044201D93B8BF5B428DF87C20B4BF2D22B5
:1050F0002B22092B8DF87D2040F3FD800DF18B00D4
:1051000004462C4A82FB0321DA17C2EBA10202EB10
:105110008201A3EB410303F13001092A134604F88D
:10512000011DEEDC21463033DAB201F8012D884250
:1051300040F23F810DF17E01234601E013F8012B7F
:1051400001F8012B9842F9D1431C1B1B0DF17E0283
:1051500013441FAA9B1A129A1993012A13440D9300
:1051600040F3F6800D9B169A134400220D93139280
:1051700023EAE37330E623AA09990A9801F0DEFDD9
:1051800000287EF4E4AE1D9B259C0DF1C009FAE4D5
:10519000144601330F9A24932C44072B259489E855
:1051A00024003FF75FAF09F1080967E718750000B1
:1051B000C874000067666666062D2B4628BF062366
:1051C0000D9323EAE373B3460E971396374608937D
:1051D0008B4EFEF789BF23AA09990A9801F0AEFD0C
:1051E00000287EF4B4AE1D9B129A259CD31A0DF1B3
:1051F000C009E0E44FF0060B89E521A81EA9049040
:1052000003911DA803210290089ACDF804B03B46F3
:1052100000910A9800F0ACF95D46064600EB0B04DD
:1052200000E72D278DF86F70FFF7AEB80793FFF7F3
:105230004DB9169A129B1344139A0D93002A7FDDE1
:10524000672223EAE3731192C6E5002B40F39880AE
:10525000BBF1000F6BD1079AD40768D41A460D92A0
:1052600023EAE373B8E5119B472B7FF483AD079BDB
:10527000DB073FF5D1AE219B9B1B12930D9B472B68
:105280003FF413AF1D9B28E725EAE5730E970893BB
:105290000D95834613909DF86F70FEF725BF079B11
:1052A000DB075F4605D540AE302306F8413DFEF7EB
:1052B00011BFCDF834B030AEFEF70FBF23AA099965
:1052C0000A9801F03BFD00287EF441AE1D9D259C0F
:1052D000249B0DF1C0092AE6A0460025FEF799BDE2
:1052E000169A139B134467220D93119223EAE373DA
:1052F00072E5219B52E5303330228DF87F308DF8F6
:105300007E2020AB25E70898394600220023FDF7D0
:10531000ABFB00287FF48AAEC5F101051D952C4436
:1053200029E5384E384B9DF86F70FFF72FB8139B67
:10533000169A9D1805EB0B030D9323EAE3734BE5D7
:10534000139B0D9AC3F101031A4413460D9277E79C
:10535000079B13F001037FF405AF13930D9B23EA22
:10536000E37339E50E9898F8013005680430002D94
:105370000E90A046BEF64BAD4FF0FF35FEF747BD91
:10538000BBF1000F02D1079BD80707D5169B5D1C08
:1053900005EB0B030D9323EAE3731DE501230D9346
:1053A0001AE58DF86F10FFF765B88DF86F10FEF7EE
:1053B00051BE0DF17E03CCE60A9A0C2313604FF028
:1053C000FF30FEF7CDBD8DF86F10FFF750B98DF8A7
:1053D0006F10FEF7ABBF8DF86F10FEF7C9BD8DF8EB
:1053E0006F10FFF719B88DF86F10FEF7EBBF8DF84F
:1053F0006F10FFF7F3B88DF86F10FFF7D2B800BF4A
:1054000010750000E4740000E074000021B1FF2A70
:1054100004D80A7001207047084670478A23036049
:105420004FF0FF30704700BF024B13B1024800F04D
:1054300005B8704700000000C96300000023014662
:105440001A46184601F0FABC02690B69934200F350
:105450008D802DE9F04F03F1FF3801F1140700F1C1
:10546000140B57F828205BF828304FEA880483B0E3
:105470000132B3FBF2F90BEB0403009407EB040ACF
:105480000193B9F1000F39D00025BC46DE462B460A
:105490005CF8046BDEF80020B4B209FB0455360C4E
:1054A0002C0C09FB0644ADB25B1BA6B213FA82F3C7
:1054B000C6EB124606EB23469BB243EA0643E2459F
:1054C0004EF8043B4FEA14454FEA2643E0D2009BD6
:1054D0005BF8033093B9019C231F9B450CD254F811
:1054E000043C4BB9A4F1080302E01A68043B1AB962
:1054F0009B4508F1FF38F8D3C0F81080044601F04E
:1055000017FB00282EDB09F101095D46002357F83F
:10551000041B28688AB29A1A090C12FA80F2C1EBAD
:10552000104303EB224391B241EA0341BA4545F8E7
:10553000041B4FEA2343EAD25BF828200BEB8803D5
:1055400082B91A1F93450BD253F8042C42B9083B79
:1055500002E01A68043B1AB99B4508F1FF38F8D3FA
:10556000C4F81080484603B0BDE8F08F00207047B3
:105570002DE9F04F016C97B08146239C92469B46E3
:1055800049B1426C4A60012393408B6001F0EEF810
:105590000023C9F84030BBF1000FD84633DB0023AD
:1055A0002360A54B1A4608EA0303934214D05046E1
:1055B000594600220023FDF757FA054648B3229AC0
:1055C00001231360249B002B00F0C5809B481860CA
:1055D000013817B0BDE8F08F229A42F20F731360C2
:1055E000BAF1000F00F0A2809548249B002BF0D068
:1055F000C378002B00F0B18000F10803249A1360F7
:1056000017B0BDE8F08F01232BF000482360C3469C
:10561000C7E714AA15AB0192009352465B46484671
:1056200001F030FB5FEA1854089040F08880149D28
:10563000159C2C4404F23243202B40F39182C3F199
:10564000400304F2124008FA03F82AFA00F040EA94
:105650000800FCF72BFF0123013CA1F1F871109326
:105660000022784BFCF7E4FD6DA3D3E90023FCF79F
:1056700093FF6DA3D3E90023FCF7DCFD064620462B
:105680000F46FCF723FF6AA3D3E90023FCF784FF4E
:1056900002460B4630463946FCF7CCFD06460F461F
:1056A00001F04EFC00220490002330463946FDF7FD
:1056B000E5F9002840F03082049E162E00F229827F
:1056C000614B03EBC603D3E9000152465B46FDF78D
:1056D000F3F9002800F04982731E049300230C9311
:1056E0002C1B631E029300F1328200230593049B5E
:1056F000002BC0F22382029A0B9311461944002317
:1057000002910A93209B092B29D8052B40F3588638
:10571000043B20930025209B023B032B00F235869F
:10572000DFE813F02C03280237035904444B474A9F
:10573000C8F31300002814BF1846104655E7CBF3F2
:10574000130343F07F5110955046A4F2FF3441F407
:105750004011149D84E73E483BE7C31C4EE70021FF
:10576000C9F844104846209100F0DAFF4FF0FF33AB
:105770000693209A0D93012307902192C9F84000C7
:105780000993159B002BC0F2D180049A0E2A00F3D6
:10579000CD802D4B03EBC203D3E90034CDE90234B5
:1057A000219B002BC0F2008356465F465046594667
:1057B000DDE902AB52465B46FDF718F801F0C0FB8D
:1057C0000446FCF783FE52465B46FCF7E5FE0B46BB
:1057D000024639463046FCF72BFD079D04F13003A5
:1057E0002B70069B012B06460F4605F1010562D082
:1057F0000022184BFCF7D0FE0022002306460F467D
:10580000FDF732F900287ED1CDF81490DDF818A00C
:10581000DDF81CB0DDE9028929E000BFAFF30080AC
:1058200061436F63A787D23FB3C8608B288AC63FA6
:10583000FB799F501344D33F0000F07F197500009F
:105840003C7600000000F83F407600003076000013
:105850001875000000002440FCF79EFE0022002383
:1058600006460F46FDF700F9002840F0B783424690
:105870004B4630463946FCF7B9FF01F061FB044660
:10588000FCF724FE42464B46FCF786FE02460B46DA
:1058900030463946FCF7CCFC04F1300E05F801EB3C
:1058A000CBEB050ED64506460F464FF00002B04B37
:1058B000D2D1DDF8149032463B4630463946FCF7EB
:1058C000B9FC06460F4602460B46DDE90201FDF72C
:1058D000D5F840B932463B46DDE90201FDF7C4F890
:1058E00088B1E3070FD515F8014C079A6B1E04E049
:1058F0009A4200F02C8413F8014D392C03F1010574
:10590000F6D001341C700899484600F02FFF0022A1
:10591000049B2A70229A01331360249B002B00F011
:10592000A78307981D6017B0BDE8F08F099A002A79
:1059300000F01281209A012A40F35882069B0A9AAD
:105940005F1EBA42C0F29783D71B069B002BC0F2A2
:105950008A84059D069B059A1A440592029A0121A4
:105960001A444846029200F099FF064665B1029932
:1059700000290B4608DDA942059AA8BF2B46D21A7A
:10598000ED1ACB1A059202930A9B002B40F3FC827E
:10599000099A002A00F00182002F00F0FE813146B2
:1059A0003A46484601F01CF8DDF8208001464246A0
:1059B0000646484600F07CFF41460446484600F053
:1059C000D5FE0A9BDB1B0A9340F0E6810121484685
:1059D00000F064FF0B9B8046002B00F0198201460B
:1059E0001A46484600F0FCFF209B012B804640F3FE
:1059F000F8820027D8F8103008EB8303186900F00C
:105A0000FFFEC0F12000029A104410F01F0000F0C9
:105A1000F681C0F12003042B40F3CA84059BC0F13A
:105A20001C00034405931346034405440293059B5D
:105A3000002B05DD21461A46484601F021F80446B0
:105A4000029B002B05DD41461A46484601F018F836
:105A500080460C9B002B40F07C82069B002B40F381
:105A60009582099B002B40F0F581DDF81CB0069F64
:105A70005D4602E000F084FE044641462046FFF702
:105A8000E3FC00F1300A05F801ABCBEB0503BB42A8
:105A90004FF00A024FF0000321464846EADB079B1D
:105AA000069A012AACBF9B1801331D464FF0000B2C
:105AB00021460122484600F0E3FF4146089001F0EC
:105AC00037F8002840F30D8315F8012C07996B1E59
:105AD00004E08B4200F0788213F8012D392A03F19B
